:060000000A128A1110280B
:10000800FE00030E83120313D1000408D2000A086D
:10001800D3000A128A113B2B0A128A111328831360
:100028004330FD000730FE004530FF0020308400DB
:100038000A128A1198270A128A11D401D501D60109
:10004800D701D801D901DA01DB01DC01DD01DE01CC
:10005800DF01E001E101FD0183010A128A11342860
:100068000A128A1134260A128A110A128A1168277A
:100078000A128A110A128A11FA260A128A110A1217
:100088008A117F270A128A11F6308312031381001E
:1000980001300A128A11AC260A128A11831203133C
:1000A8005C085D04031D59285A288A291812013052
:1000B800D8000030D900081288160813881384293C
:1000C8009F186728682869289F14061B6C286D28C4
:1000D80071280230DA000030DB00061F742875280A
:1000E800AF2802305A065B04031D7B287C28AF2802
:1000F800831203178D018312031315080A128A113C
:10010800D4260A128A110130831203178D00831234
:1001180003131B080A128A11D4260A128A11023004
:10012800831203178D008312031356080A128A11CB
:10013800D4260A128A110330831203178D00831202
:10014800031354080A128A11D4260A128A11831238
:100158000313DA01DB01861AB228B328B728033063
:10016800DA000030DB00861EBA28BB28F6280330E8
:100178005A065B04031DC128C228F62804308312DE
:1001880003178D008312031315080A128A11D42647
:100198000A128A110530831203178D008312031384
:1001A8001B080A128A11D4260A128A1106308312F1
:1001B80003178D008312031356080A128A11D426D6
:1001C8000A128A110730831203178D008312031352
:1001D80054080A128A11D4260A128A1183120313A8
:1001E800DA01DB01061AF928FA28FE280430DA00B9
:1001F8000030DB00061E012902293D2904305A0679
:100208005B04031D082909293D29083083120317B7
:100218008D008312031315080A128A11D4260A12B4
:100228008A110930831203178D00831203131B08E8
:100238000A128A11D4260A128A110A308312031765
:100248008D008312031356080A128A11D4260A1243
:100258008A110B30831203178D008312031354087D
:100268000A128A11D4260A128A1183120313DA0198
:10027800DB0186194029412945290530DA0000307B
:10028800DB00861D48294929842905305A065B0464
:10029800031D4F29502984290C30831203178D0020
:1002A8008312031315080A128A11D4260A128A1116
:1002B8000D30831203178D00831203131B080A12D3
:1002C8008A11D4260A128A110E30831203178D0060
:1002D8008312031356080A128A11D4260A128A11A5
:1002E8000F30831203178D008312031354080A1268
:1002F8008A11D4260A128A1183120313DA01DB0148
:1003080058035904031989298A2964285C035D0460
:10031800031D8F2990290B2B0130D8000030D900FC
:1003280018120812881208178813052B061B9D2916
:100338009E29A2290230DA000030DB00061FA52919
:10034800A629F42902305A065B04031DAC29AD29FD
:10035800F429831203178D010A128A11A7270A129A
:100368008A118312031395000130831203178D003D
:100378000A128A11A7270A128A11831203139B00F3
:100388000230831203178D000A128A11A7270A1256
:100398008A1183160313A200A301220883120313F0
:1003A800D60083160313230883120313D7000330E0
:1003B800831203178D000A128A11A7270A128A11BD
:1003C80083160313A200A301220883120313D40087
:1003D80083160313230883120313D500DA01DB0104
:1003E800861AF729F829FC290330DA000030DB00E7
:1003F800861EFF29002A4F2A03305A065B04031D74
:10040800062A072A4F2A0430831203178D000A127E
:100418008A11A7270A128A1183120313950005303F
:10042800831203178D000A128A11A7270A128A114C
:10043800831203139B000630831203178D000A12E0
:100448008A11A7270A128A1183160313A200A3018F
:10045800220883120313D60083160313230883127A
:100468000313D7000730831203178D000A128A116D
:10047800A7270A128A1183160313A200A3012208D0
:1004880083120313D4008316031323088312031360
:10049800D500DA01DB01061A522A532A572A0430FA
:1004A800DA000030DB00061E5A2A5B2AAA2A04302A
:1004B8005A065B04031D612A622AAA2A083083129D
:1004C80003178D000A128A11A7270A128A118312AC
:1004D800031395000930831203178D000A128A113D
:1004E800A7270A128A11831203139B000A3083126A
:1004F80003178D000A128A11A7270A128A11831678
:100508000313A200A301220883120313D600831643
:100518000313230883120313D7000B308312031726
:100528008D000A128A11A7270A128A11831603134B
:10053800A200A301220883120313D4008316031315
:10054800230883120313D500DA01DB018619AD2ACB
:10055800AE2AB22A0530DA000030DB00861DB52A43
:10056800B62A052B05305A065B04031DBC2ABD2A92
:10057800052B0C30831203178D000A128A11A72746
:100588000A128A118312031395000D308312031780
:100598008D000A128A11A7270A128A1183120313DF
:1005A8009B000E30831203178D000A128A11A727A9
:1005B8000A128A1183160313A200A30122088312C8
:1005C8000313D60083160313230883120313D700DB
:1005D8000F30831203178D000A128A11A7270A12F7
:1005E8008A1183160313A200A3012208831203139E
:1005F800D40083160313230883120313D500DA01EA
:10060800DB015803590403190A2B0B2B9A290230D2
:100618005C065D04031D112B122B212B0130D80021
:100628000030D900181608128812081388175803C2
:1006380059040319202B212B1B2B03305C065D0466
:10064800031D272B282B52280130D8000030D90051
:100658001816081688120813881358035904031922
:10066800362B372B312B52280A128A1110280B1CD3
:100678003E2B3F2B652B0B10861B432B442B482B03
:100688000130DA000030DB00861F4B2B4C2B652B2A
:100698005A035B04031D512B522B652B0130DC07D9
:1006A8000318DD0A0030DD07D801D901DA01DB01C2
:1006B80004305C065D04031D622B632B652BDC0193
:1006C800DD010C1F682B692B082C1F0CCF004F0C69
:1006D8000F39003A031D712B722B902B0030C70085
:1006E800C800FF30C9000030CA000330CB0000301A
:1006F800CC001430CD000030CE001E080A128A113A
:1007080077260A128A1183120313470895001F08D7
:10071800C33904389F00072C1F0CCF004F0C0F392A
:10072800013A031D982B992BB72B0030C700C8003E
:10073800FF30C9000030CA000330CB000030CC00C5
:100748001430CD000030CE001E080A128A11772618
:100758000A128A118312031347089B001F08C33922
:1007680008389F00072C1F0CCF004F0C0F39023A96
:10077800031DBF2BC02BE02B0030C700C800FF3083
:10078800C9000030CA000130CB000030CC00143062
:10079800CD000030CE001E080A128A1177260A12F0
:1007A8008A11831203134808D7004708D6001F0888
:1007B800C3390C389F00072C1F0CCF004F0C0F3982
:1007C800033A031DE82BE92B072C0030C700C800AB
:1007D800FF30C9000030CA000130CB000030CC0027
:1007E8001430CD000030CE001E080A128A11772678
:1007F8000A128A11831203134808D5004708D40047
:10080800C3309F05072C0C130B1D0B2C0C2C292C0B
:100818000B11F630810007145708F1005608F00054
:100828000A128A11B9270A128A11831203130710B0
:1008380087155508F1005408F0000A128A11B927E3
:100848000A128A118312031387118C1E2C2C2D2C4B
:10085800432D7A301A06031D322C332C382CDC0138
:10086800DD01D801D9018C1278301A06031D3D2C00
:100878003E2C452C0130DC000030DD00D801D901C8
:100888008C1263301A06031D4A2C4B2C522C023052
:10089800DC000030DD00D801D9018C1276301A0650
:1008A800031D572C582C5F2C0330DC000030DD0072
:1008B800D801D9018C1264301A06031D642C652CEA
:1008C8007E2C610A031D692C6A2C6B2CE101113006
:1008D8006106031D702C712C732C1030E100610827
:1008E800203E84008313000895000130CF004F0894
:1008F800E1078C1261301A06031D832C842C932C7B
:10090800610A031D882C892C8A2CE1016108203E8C
:1009180084008313000895000130E1028C127730BF
:100928001A06031D982C992CB22C600A031D9D2CC5
:100938009E2C9F2CE00111306006031DA42CA52CD1
:10094800A72C1030E0006008203E840083130008C4
:100958009B000130CF004F08E0078C1273301A0655
:10096800031DB72CB82CC72C600A031DBC2CBD2C4A
:10097800BE2CE0016008203E8400831300089B0021
:100988000130E0028C1269301A06031DCC2CCD2CE4
:10099800EB2C5F0A031DD12CD22CD32CDF01103095
:1009A8005F06031DD82CD92CDB2C0F30DF005F0825
:1009B800323E840083130008CF00D0014F08D600D0
:1009C8005008D7000130CF004F08DF078C126B307A
:1009D8001A06031DF02CF12C052D5F0A031DF52CBA
:1009E800F62CF72CDF015F08323E840083130008E1
:1009F800CF00D0014F08D6005008D7000130DF02E1
:100A08008C126C301A06031D0A2D0B2D292D5E0A37
:100A1800031D0F2D102D112DDE0110305E06031D54
:100A2800162D172D192D0F30DE005E08323E84007A
:100A380083130008CF00D0014F08D4005008D50018
:100A48000130CF004F08DE078C126A301A06031DEA
:100A58002E2D2F2D432D5E0A031D332D342D352DBC
:100A6800DE015E08323E840083130008CF00D00107
:100A78004F08D4005008D5000130DE028C1253080C
:100A88008A0052088400510E8300FE0E7E0E090073
:100A980005308A000408840A820700340A340D34B9
:100AA8002D342D342D342D342D342D342D342D3436
:100AB8002D342D342D342D342D342D342D342D3426
:100AC8002D342D342D342D342D342D342D342D3416
:100AD8002D342D342D342D342D342D342D342D3406
:100AE8002D345034413452344134203443344F345B
:100AF8004E34543452344F344C344134523420340C
:100B080043344F344E3420344C344134203443344D
:100B18004F344D34503455345434413444344F34C4
:100B280052344134203445344C3445344734493404
:100B38005234203445344C3420344D344F3444340A
:100B48004F34203433342D342D342D342D342D347A
:100B58002D342D342D342D342D342D342D342D3485
:100B68002D342D342D342D342D342D342D342D3475
:100B78002D342D342D342D342D342D342D342D3465
:100B88002D342D342D342D340A340D340034831291
:100B98000313C401F71FD12DD22DD92DF609F7095A
:100BA800F60A0319F70AC401C40AF91FDC2DDD2D62
:100BB800E62DF809F909F80A0319F90A0130FA00CB
:100BC8007A08C406C501C601760877040319ED2D15
:100BD800EE2D252EC301C30AFC2D01300310F60D9E
:100BE800F70DFF3E031DF22D0130FA007A08C30706
:100BF800F71FFF2D002EF12D01300310C50DC60D76
:100C0800FF3E031D012E77087902031D0D2E76087D
:100C18007802031C102E112E182E7608F802770879
:100C2800031CF903F902451401300310F70CF60C04
:100C3800FF3E031D192E0130C302031D242E252E4D
:100C4800002E44080319292E2A2E2F2EC509C6095D
:100C5800C50A0319C60A4608F7004508F600080041
:100C68008316031789010814881408158815831634
:100C7800031386170617861606168615071087119A
:100C88008801831203138501860188018B170B17CE
:100C98008B150B108B160B11831603130C1783126D
:100CA80003130C13831603138C16831203138C126D
:100CB800831603130F088F3930388F000F148112F1
:100CC80081110115811401148113951715179516B3
:100CD8001516951596171613961216129611831255
:100CE80003178F010800FC00831203134708490209
:100CF800F6004808031C480A4A02F7007C08FB0073
:100D080047087B02F00048090318013EF1004B0830
:100D18004D02F2004C08031C4C0A4E02F3000A1262
:100D28008A1120270A128A117108F9007008F80040
:100D38000A128A11CB250A128A11831203134B084F
:100D48007607C7004C0803184C0A7707C800080044
:100D580083160313A100C72E83120C1EB42EB52EC2
:100D6800B02E83160313210884000A128A114C2519
:100D78000A128A1183120313990001308316031390
:100D8800A0002008A107210884000A128A114C2516
:100D98000A128A11003A031DD22ED32EB02E080053
:100DA80083160313A000831603178C18DC2EDD2E80
:100DB800D72E831603132008831203178C0083167B
:100DC80003178C130C158B138B1BEB2EEC2EE82EB4
:100DD8005530831603178D00AA308D008C148B179D
:100DE8008C18F72EF82EF42E0C1108008316031316
:100DF80007159B3092000C30831203139700303094
:100E080097040B3095008C10921412141215831647
:100E1800031387140C30831203139D001D169D16AF
:100E28000B309B008C1C192F1A2F162F8C10831631
:100E38000313071187100800F401F501701C252F12
:100E4800262F2C2F7208F4070318F50A7308F507E4
:100E580001300310F20DF30DFF3E031D2D2F01305D
:100E68000310F10CF00CFF3E031D342F70087104C1
:100E7800031D3F2F402F222F7508F1007408F00042
:100E880008000334043405340634073408340934BC
:100E98000A340B340C340D340E340F34103411343E
:100EA8001234133414340134023403340434053452
:100EB80006340734083409340A340B340C340D343E
:100EC8000E340F3410341134831203139F131F137D
:100ED800831603139F121F129F13831203139F126B
:100EE8001F129F111F111F14033083160313A00034
:100EF800A00B7C2F0800831603178715831603138E
:100F080018159A010C3099001812831203139817B8
:100F1800831603139816831203130C12181608006D
:100F28007E088A007F0882000A128A1194270A1212
:100F38008A118000840A04087D0603190034FF0A18
:100F48000319FE0A982F831603178C18AC2FAD2FA0
:100F5800A72F0C18B02FB12FA72F8C130C148312A6
:100F680003170C08FD007D080800C32FBB2FBC2FFA
:100F7800BD2F0130F0020030031CF103F1027008AC
:0C0F88007104031DC82FC92FBA2F0800E8
:08400000FF3FFF3FFF3FFF3FC0
:04400E00D420FF3F7C
:00000001FF
